:020000040800F2
:100000000000022061110008B50F0008BD0F0008B4
:10001000C50F0008CD0F0008D50F00080000000034
:10002000000000000000000000000000B511000802
:10003000DD0F0008000000004D030008F902000871
:10004000B5110008B5110008B5110008B511000878
:10005000B5110008B5110008B5110008B511000868
:10006000B5110008B5110008B5110008B511000858
:10007000B5110008B5110008B5110008B511000848
:10008000B5110008B5110008B5110008B511000838
:10009000B5110008B5110008B5110008B511000828
:1000A000B5110008B5110008B5110008B511000818
:1000B000B5110008B5110008B5110008B511000808
:1000C000B5110008B5110008B5110008B5110008F8
:1000D000B5110008B5110008B5110008B5110008E8
:1000E000EB0F0008B511000800000000B511000872
:1000F000B5110008B5110008B5110008B5110008C8
:10010000B5110008B5110008B5110008B5110008B7
:10011000B5110008B5110008F90F0008B511000865
:10012000B5110008B5110008B5110008B511000897
:10013000B5110008B5110008B5110008B511000887
:1001400000000000000000000000000000000000AF
:10015000B5110008B5110008B5110008B511000867
:10016000B5110008B5110008B5110008B511000857
:10017000B5110008B5110008B5110008B511000847
:10018000B5110008B5110008B5110008B511000837
:10019000B5110008B5110008B5110008B511000827
:1001A000B5110008B5110008B5110008B511000817
:1001B000B5110008B5110008B5110008B511000807
:1001C000B5110008B5110008B5110008B5110008F7
:1001D000B5110008B5110008B5110008B5110008E7
:1001E000B5110008B5110008B5110008B5110008D7
:1001F000B5110008B5110008B5110008B5110008C7
:10020000B5110008B5110008B5110008B5110008B6
:10021000B5110008B5110008B5110008B5110008A6
:10022000B5110008B5110008B51100080000000064
:10023000B5110008B511000800000000B511000854
:10024000B5110008B5110008B5110008B511000876
:10025000B5110008B5110008B5110008B511000866
:10026000B5110008B5110008B5110008B511000856
:10027000B5110008B5110008B51100080000000014
:10028000B5110008B5110008B51100080000000004
:0802900000000000B511000898
:1002A00072B64FF0E0201949C0F8081D18481749E8
:1002B000096801601748016841F0010101604FF0D1
:1002C000E020154941614FF0070101614FF0000145
:1002D000C0F8181D4FF07F41C0F81C1D0F49C0F831
:1002E000201D7047FFF7FEBFFFF7FEBFFFF7FEBF01
:1002F00001B5BDE80140704701B500F071F8BDE8F7
:1003000001407047FFF7FEBFFFF7FEBF0000000887
:100310004C030020001000E0FF5207000000FF40E7
:100320004FF000002A4A1060EFF3148020F0040020
:1003300080F3148862B64FF080504FF0E021C1F88E
:10034000040DBFF34F8FBFF36F8FFEE72148224AA2
:100350004FF00003016891B10360EFF3098C2CE9C1
:10036000F00F1EF0100F01D12CED108A1B4C4CF831
:1003700004ED2568C1F808C00DB18D61236072B627
:100380001168B1B1016062B64F68144C8D6907F114
:1003900001074F602560D1F808C05CF804EB1EF03F
:1003A000100F01D1BCEC108ABCE8F00F8CF3098867
:1003B000704772B61168016009B962B6F9E74FF08B
:1003C00000674FF0E028C8F8047D62B6DCE77047AC
:1003D000E8030020500300205403002054090020AB
:1003E0002249086800F101000860214B1A683AB1FF
:1003F000A2F101021A601AB91E4B4FF001001860F9
:100400001D490868026822B11C4B4FF001021A60B6
:1004100008E000F104001A4B1A68904201D1194B10
:1004200018680860134B1A6812B914490868D0B1EB
:100430002DE901401149086808B106F0EDFC0D4BAB
:100440001A6872B106F096FC0F48016849B90F4866
:1004500001680F4A13680F484FF08052994200D04C
:100460000260BDE80140BFF34F8F7047F4030020E6
:1004700054090020F8030020840400208804002090
:10048000800400207C040020E803002050030020AA
:100490005403002004ED00E0000000000000000014
:1004A000026922F00702A2F144026FF00203136016
:1004B0004FF0000353609360D36013615361936105
:1004C000D361136253629362D362136353634FF039
:1004D000FF339363D1634FF080731364826070477E
:1004E00053B94AB9002908BF00281CBF4FF0FF319B
:1004F0004FF0FF3000F0E2B8ADF1080C6DE904CE2A
:1005000007F08FFADDF804E0DDE9022304B070475C
:1005100000F1340191E838009C46A6464CF8045D91
:1005200090E8FF0FE54600BD90EC210B704700BF3F
:1005300080EC210B704700BF90EC200B704700BF90
:1005400080EC200B704700BFD0EC200B704700BF41
:10055000C0EC200B704700BFF0EC0201F0EC021180
:10056000F0EC0221F0EC0231F0EC0241F0EC02512F
:10057000F0EC0261F0EC0271F0EC0281F0EC02911F
:10058000F0EC02A1F0EC02B1F0EC02C1F0EC02D10F
:10059000F0EC02E1F0EC02F1704700BFE0EC020188
:1005A000E0EC0211E0EC0221E0EC0231E0EC02416F
:1005B000E0EC0251E0EC0261E0EC0271E0EC02815F
:1005C000E0EC0291E0EC02A1E0EC02B1E0EC02C14F
:1005D000E0EC02D1E0EC02E1E0EC02F1704700BF98
:1005E000B0FC0181B0FC0191B0FC01A1B0FC01B1F3
:1005F000704700BFA0FC0181A0FC0191A0FC01A1FB
:10060000A0FC01B1704700BFEC4600B52DE90050D9
:100610002DE9FF1F4FF000032DE90C0001A907F0A1
:100620009BFCDDF840E012B0704700BFEC4600B51F
:100630002DE900502DE9FF1F4FF000032DE90C00BC
:1006400001A907F0C4FCDDF840E012B0704700BF1C
:10065000EC4600B52DE900502DE9FF1F4FF00003D7
:100660002DE90C0001A907F0D2FCDDF840E012B042
:10067000704700BFEC4600B52DE900502DE9FF1F83
:100680004FF000032DE90C0001AB07F096FCDDF8FC
:1006900040E012B0704700BFEC4600B52DE90050B5
:1006A0002DE9FF1F4FF000032DE90C0001AA07F010
:1006B00005FDDDF840E012B0704700BF704700BF95
:1006C000844641EA000313F003036DD1403A41D35D
:1006D00051F8043B40F8043B51F8043B40F8043B1C
:1006E00051F8043B40F8043B51F8043B40F8043B0C
:1006F00051F8043B40F8043B51F8043B40F8043BFC
:1007000051F8043B40F8043B51F8043B40F8043BEB
:1007100051F8043B40F8043B51F8043B40F8043BDB
:1007200051F8043B40F8043B51F8043B40F8043BCB
:1007300051F8043B40F8043B51F8043B40F8043BBB
:1007400051F8043B40F8043B51F8043B40F8043BAB
:10075000403ABDD2303211D351F8043B40F8043B4B
:1007600051F8043B40F8043B51F8043B40F8043B8B
:1007700051F8043B40F8043B103AEDD20C3205D35B
:1007800051F8043B40F8043B043AF9D2043208D053
:10079000D2071CBF11F8013B00F8013B01D30B88C5
:1007A00003806046704700BF082A13D38B078DD0A3
:1007B00010F003038AD0C3F10403D21ADB071CBF75
:1007C00011F8013B00F8013B80D331F8023B20F8DF
:1007D000023B7BE7043AD9D3013A11F8013B00F818
:1007E000013BF9D20B7803704B7843708B788370A0
:1007F0006046704710B5054C237833B9044B13B1EC
:100800000448AFF300800123237010BD7C01002059
:1008100000000000CC8A000808B5034B1BB1034957
:100820000348AFF3008008BD0000000080010020F5
:10083000CC8A000880B582B000AF786000F0C6F8BE
:1008400000BF0837BD4680BD80B584B000AF00F062
:10085000C1F85B4B5B6903F40033002B14BF012329
:100860000023DBB2002B1BD1BFF34F8F00BFBFF3C0
:100870006F8F00BF524B0022C3F85022BFF34F8F3F
:1008800000BFBFF36F8F00BF4D4B5B694C4A43F411
:1008900000335361BFF34F8F00BFBFF36F8F00E092
:1008A00000BF474B5B6903F48033002B14BF012367
:1008B0000023DBB2002B42D1414B0022C3F884203D
:1008C000BFF34F8F00BF3E4BD3F88030FB60FB6817
:1008D0005B0BC3F30E03BB60FB68DB08C3F30903C8
:1008E0007B60BB685A0143F6E07313407A68920755
:1008F00033491343C1F860327B685A1E7A60002B7B
:1009000014BF01230023DBB2002BEAD1BB685A1EBF
:10091000BA60002B14BF01230023DBB2002BDBD114
:10092000BFF34F8F00BF264B5B69254A43F48033EA
:100930005361BFF34F8F00BFBFF36F8F00E000BF65
:1009400004F038FC00F04CF800F072F900F036FAD0
:1009500000F0C2FA00F0E2F9002005F099FF022051
:1009600005F096FF0121002006F008F8154B4FF422
:10097000E1321A60134B00225A60124B00221A8196
:10098000104B00225A810F4B00229A810D49002002
:1009900006F084F80346002B14BF01230023DBB2CA
:1009A000002B01D000F03EF9074800F009FD06F0E9
:1009B0007BF900F037F9002318461037BD4680BD9B
:1009C00000ED00E098010020E001002080B400AFBD
:1009D00000BFFDE780B500AF00F08EF800BF80BD1E
:1009E00080B59CB000AF07F124034C2200211846CB
:1009F00007F04AFF3B1D20220021184607F044FF64
:100A0000022004F09DFB00233B60384B9B69374A72
:100A100043F440439361354B9B6903F440433B608F
:100A2000334BDB6A324A43F00103D362304BDB6A5B
:100A300003F001033B603B6800BF2C4B9B6903F450
:100A40000053B3F5005FF8D104F06AFB04F00EFC2C
:100A5000284B1B6F274A23F01803136725237B625B
:100A60004FF48033BB620123FB620123FB6302234B
:100A7000BB640223FB6404233B654FF4F0737B6586
:100A80000223BB650423FB6502233B6604237B66CC
:100A90000023BB660023FB6607F12403184601F020
:100AA00017FB0346002B01D000F0BCF83F237B600E
:100AB0000323BB600023FB6008233B6140237B6171
:100AC0004023BB614FF48063FB6140233B623B1DCD
:100AD0000421184601F056FF0346002B01D000F018
:100AE000A1F800BF7037BD4680BD00BF0048025866
:100AF000000400580044025880B584B000AF3B4663
:100B000000221A605A609A60DA6001F069FA0123E3
:100B10003B7000237B7000237B600F233B7200231C
:100B20007B720123BB720323FB7200233B73002300
:100B30007B730023BB730023FB733B46184601F015
:100B400087FA01237B704FF000637B6014233B72B4
:100B50000023BB720123BB733B46184601F078FAB1
:100B600002237B704FF000537B6010233B72012304
:100B7000BB7201233B730023BB733B46184601F055
:100B800067FA03237B704FF010537B6012233B7294
:100B90000123BB730123FB733B46184601F058FA4F
:100BA00004237B704FF040537B6011233B723B4624
:100BB000184601F04DFA05237B70104B7B600E2325
:100BC0003B723B46184601F043FA06237B704FF018
:100BD00060537B600F233B7201237B730023BB7345
:100BE0000023FB733B46184601F032FA062001F061
:100BF0000FFA00BF1037BD4680BD00BF00000430B3
:100C000080B582B000AF78607B681B68044A93426D
:100C100001D104F00BFB00BF0837BD4680BD00BF0B
:100C20000010004080B400AF72B600BF00BFFDE707
:100C300080B58AB000AF07F1140300221A605A6031
:100C40009A60DA601A61324BD3F8E030304A43F0F0
:100C50000403C2F8E0302E4BD3F8E03003F0040375
:100C60003B613B692A4BD3F8E030294A43F08003CB
:100C7000C2F8E030264BD3F8E03003F08003FB608D
:100C8000FB68234BD3F8E030214A43F00803C2F855
:100C9000E0301F4BD3F8E03003F00803BB60BB68C3
:100CA0001B4BD3F8E0301A4A43F01003C2F8E0308F
:100CB000174BD3F8E03003F010037B607B68002211
:100CC0000221144804F012FA4FF440737B610223AE
:100CD000BB610023FB6100233B6207237B6207F1BA
:100CE000140319460C4804F047F802237B610123E2
:100CF000BB610023FB6100233B6207F1140319462B
:100D0000044804F039F800BF2837BD4680BD00BF55
:100D10000044025800100258000C025880B500AF81
:100D2000074B084A1A60064B00225A60044804F038
:100D30000DFB0346002B01D0FFF774FF00BF80BD01
:100D4000A80100200018024880B5B4B000AF786058
:100D500007F11003C0220021184607F095FD7B68BB
:100D60001B68144A934221D14FF400324FF0000324
:100D7000C7E904230023C7F8903007F11003184691
:100D800002F0CEF90346002B01D0FFF74BFF0A4BD0
:100D9000D3F8DC30084A43F04003C2F8DC30064B9D
:100DA000D3F8DC3003F04003FB60FB6800BFD037B2
:100DB000BD4680BD001802480044025880B586B088
:100DC00000AF3B1D00221A605A609A60DA601A6117
:100DD00000233B60254B264A1A60244B00225A60B0
:100DE000224B7F229A60214BFF22DA601F4B0022A8
:100DF0001A611E4B00229A611C4B0022DA611B4BC8
:100E000000225A61194804F003FB0346002B01D06D
:100E1000FFF708FF00233B7100237B710023BB71A8
:100E200000233B6100237B613B1D012219460F48D3
:100E300004F070FB0346002B01D0FFF7F3FE012303
:100E40003B7001237B700123BB700023FB703B468A
:100E500001221946054804F0FBFB0346002B01D094
:100E6000FFF7E0FE00BF1837BD4680BDBC01002083
:100E70000040005880B5B2B000AF786007F10803B9
:100E8000C0220021184607F0FFFC7B681B68104A4F
:100E9000934219D14FF480024FF00003C7E90223B7
:100EA0004FF48073C7F8BC3007F10803184602F00E
:100EB00037F90346002B01D0FFF7B4FE054B1B6F3B
:100EC000044A43F40043136700BFC837BD4680BDE2
:100ED000004000580044025880B588B000AF07F1C8
:100EE000100300221A605A609A60DA603B1D0022EB
:100EF0001A605A609A601E4B4FF080421A601C4B79
:100F000000225A601A4B00229A60194B4FF0FF32B0
:100F1000DA60174B00221A61154B00229A611448BF
:100F200000F0F6F90346002B01D0FFF77BFE4FF4EB
:100F300080533B6107F1100319460D4800F030FC67
:100F40000346002B01D0FFF76DFE00237B600023DA
:100F5000FB603B1D1946064800F0B6FE0346002B19
:100F600001D0FFF75FFE00BF2037BD4680BD00BF48
:100F7000E001002080B485B000AF78607B681B681A
:100F8000B3F1804F0ED10A4BD3F8E830084A43F052
:100F90000103C2F8E830064BD3F8E83003F0010350
:100FA000FB60FB6800BF1437BD465DF8047B7047EB
:100FB0000044025880B400AF00BFFDE780B400AF2A
:100FC00000BFFDE780B400AF00BFFDE780B400AF15
:100FD00000BFFDE780B400AF00BFFDE780B400AF05
:100FE00000BFBD465DF8047B704780B500AF0020B0
:100FF00005F036FD00BF80BD80B500AF024800F0AF
:10100000C7FA00BF80BD00BF2C02002080B483B0AF
:1010100000AF0A4BD3F8F430084A43F00203C2F899
:10102000F430064BD3F8F43003F002037B607B68A6
:1010300000BF0C37BD465DF8047B70470044025882
:1010400080B590B000AF78607B680F2B27D8002266
:101050007968362000F09CFF362000F0B3FF294A63
:101060007B681360284BD3F8E830274A43F010031D
:10107000C2F8E830244BD3F8E83003F01003FB60EB
:10108000FB6807F1100207F114031146184602F03D
:1010900005F8BB6ABB63BB6B002B06D101E00123E3
:1010A0002BE001F0CFFFF86304E001F0CBFF034633
:1010B0005B00FB63FB6B154AA2FB03239B0C013B0C
:1010C0007B63134B134A1A60114B40F2E732DA602C
:1010D0000F4A7B6B53600E4B00221A610C4B0022AF
:1010E0009A600B4800F014F90346002B04D108481D
:1010F00000F0D6F9034600E0012318464037BD460C
:1011000080BD00BF080000200044025883DE1B435E
:101110002C0200200010004080B400AF01231846CC
:10112000BD465DF8047B704780B582B000AF786043
:10113000396007F03BFC034616221A604FF0FF337C
:1011400018460837BD4680BD80B582B000AF7860D4
:101150004FF0FF317868FFF7E7FF00BFFDE70000C1
:10116000DFF838D000F0C8F800F026F80C480D4938
:101170000D4A002302E0D458C4500433C4188C42F2
:10118000F9D30A4A0A4C002301E013600432A24258
:10119000FBD307F011FCFFF757FBFEE7000002202E
:1011A000000000207C010020F08B00087C01002062
:1011B0002C0C0020FEE7000080B400AF434BD3F8B6
:1011C0008830424A43F47003C2F88830404B1B68B1
:1011D00003F00F03062B07D83D4B1B6823F00F03CA
:1011E0003B4A43F0070313603A4B1B68394A43F00C
:1011F00001031360374B00221A61364B1A683549D8
:10120000354B13400B60324B1B6803F00803002B77
:1012100007D02F4B1B6823F00F032D4A43F0070321
:1012200013602C4B00229A612A4B0022DA61294B71
:1012300000221A62274B294A9A62264B284ADA6210
:10124000244B284A1A63234B00225A63214B254A18
:101250009A63204B0022DA631E4B224A1A641D4B0C
:1012600000225A641B4B1B681A4A23F48023136024
:10127000184B00221A661C4B1A681C4B1340B3F122
:10128000005F02D21A4B01221A60124BD3F8D430FD
:1012900003F48053002B13D10E4BD3F8D4300D4AF6
:1012A00043F48053C2F8D430124B43F2D2021A6096
:1012B000084BD3F8D430074A23F48053C2F8D43013
:1012C00000BFBD465DF8047B704700BF00ED00E045
:1012D00000200052004402587FEDF6EA00020202AC
:1012E0000000FF01800201010010005C0000FFFF10
:1012F0000881005100400052044BDA6842F00202BB
:10130000DA605A689204FCD5704700BF0048025862
:1013100080B582B000AF78607B68002B01D10123DB
:1013200049E07B6893F83D30DBB2002B06D17B6847
:10133000002283F83C207868FFF71CFE7B680222BD
:1013400083F83D207B681A687B6804331946104691
:1013500000F046FB7B68012283F848207B6801226D
:1013600083F83E207B68012283F83F207B680122BE
:1013700083F840207B68012283F841207B680122AA
:1013800083F842207B68012283F843207B68012296
:1013900083F844207B68012283F845207B68012282
:1013A00083F846207B68012283F847207B6801226E
:1013B00083F83D20002318460837BD4680BD000055
:1013C00080B485B000AF78607B6893F83D30DBB2C5
:1013D000012B01D001234CE07B68022283F83D20E1
:1013E0007B681B68264A934222D07B681B68B3F156
:1013F000804F1DD07B681B68224A934218D07B68BF
:101400001B68214A934213D07B681B681F4A934292
:101410000ED07B681B681E4A934209D07B681B680C
:101420001C4A934204D07B681B681B4A934215D127
:101430007B681B689A68194B1340FB60FB68062B9E
:1014400015D0FB68B3F5803F11D07B681B681A6824
:101450007B681B6842F001021A6008E07B681B6829
:101460001A687B681B6842F001021A6000E000BF46
:10147000002318461437BD465DF8047B704700BF53
:10148000000001400004004000080040000C004043
:101490000004014000180040004001400700010026
:1014A00080B485B000AF78607B6893F83D30DBB2E4
:1014B000012B01D0012354E07B68022283F83D20F8
:1014C0007B681B68DA687B681B6842F00102DA609F
:1014D0007B681B68264A934222D07B681B68B3F165
:1014E000804F1DD07B681B68224A934218D07B68CE
:1014F0001B68214A934213D07B681B681F4A9342A2
:101500000ED07B681B681E4A934209D07B681B681B
:101510001C4A934204D07B681B681B4A934215D136
:101520007B681B689A68194B1340FB60FB68062BAD
:1015300015D0FB68B3F5803F11D07B681B681A6833
:101540007B681B6842F001021A6008E07B681B6838
:101550001A687B681B6842F001021A6000E000BF55
:10156000002318461437BD465DF8047B704700BF62
:10157000000001400004004000080040000C004052
:101580000004014000180040004001400700010035
:1015900080B584B000AF78607B681B68DB68FB6057
:1015A0007B681B681B69BB60BB6803F00203002BF0
:1015B00020D0FB6803F00203002B1BD07B681B6864
:1015C0006FF002021A617B6801221A777B681B6840
:1015D0009B6903F00303002B03D0786800F0E2F965
:1015E00005E0786800F0D4F9786800F0E5F97B68E8
:1015F00000221A77BB6803F00403002B20D0FB689D
:1016000003F00403002B1BD07B681B686FF00402FF
:101610001A617B6802221A777B681B689B6903F456
:101620004073002B03D0786800F0BCF905E07868BF
:1016300000F0AEF9786800F0BFF97B6800221A77F5
:10164000BB6803F00803002B20D0FB6803F00803FD
:10165000002B1BD07B681B686FF008021A617B6847
:1016600004221A777B681B68DB6903F00303002BF5
:1016700003D0786800F096F905E0786800F088F902
:10168000786800F099F97B6800221A77BB6803F04C
:101690001003002B20D0FB6803F01003002B1BD09D
:1016A0007B681B686FF010021A617B6808221A774A
:1016B0007B681B68DB6903F44073002B03D07868F8
:1016C00000F070F905E0786800F062F9786800F0E1
:1016D00073F97B6800221A77BB6803F00103002BC3
:1016E0000CD0FB6803F00103002B07D07B681B685C
:1016F0006FF001021A617868FFF782FABB6803F0A5
:101700008003002B04D1BB6803F40053002B0CD0E2
:10171000FB6803F08003002B07D07B681B686FF425
:1017200002521A61786800F067FBBB6803F48073AB
:10173000002B0CD0FB6803F08003002B07D07B68E4
:101740001B686FF480721A61786800F05FFBBB68F9
:1017500003F04003002B0CD0FB6803F04003002B88
:1017600007D07B681B686FF040021A61786800F050
:101770002DF9BB6803F02003002B0CD0FB6803F0AD
:101780002003002B07D07B681B686FF020021A61D2
:10179000786800F027FB00BF1037BD4680BD000011
:1017A00080B584B000AF786039600023FB737B683C
:1017B00093F83C30012B01D10223DCE07B6801224D
:1017C00083F83C207B68022283F83D207B681B68FD
:1017D0009B68BB60BA686A4B1340BB60BB6823F46C
:1017E0007F43BB607B681B68BA689A603B681B6874
:1017F000644A934200F0A980624A934200F2AE80AC
:10180000614A934200F0A1805F4A934200F2A680B1
:101810005E4A934200F099805C4A934200F29E80B7
:10182000B3F1101F00F09180B3F1101F00F2968009
:10183000B3F5801F00F08980B3F5801F00F28E8021
:10184000B3F5005F3ED0B3F5005F00F28780B3F5DB
:10185000805F00F08680B3F5805F7FD8702B1AD050
:10186000702B7BD8602B50D0602B77D8502B3CD07E
:10187000502B73D8402B58D0402B6FD8302B64D0CE
:10188000302B6BD8202B60D0202B67D8002B5CD05E
:10189000102B5AD062E07B6818683B6899683B68F7
:1018A0005A683B68DB6800F0EFF97B681B689B684F
:1018B000BB60BB6843F07703BB607B681B68BA689A
:1018C0009A604FE07B6818683B6899683B685A6883
:1018D0003B68DB6800F0D8F97B681B689A687B6816
:1018E0001B6842F480429A603CE07B6818683B6861
:1018F00059683B68DB681A4600F012F97B681B6880
:101900005021184600F0A2F92CE07B6818683B686B
:1019100059683B68DB681A4600F056F97B681B681B
:101920006021184600F092F91CE07B6818683B685B
:1019300059683B68DB681A4600F0F2F87B681B6860
:101940004021184600F082F90CE07B681A683B6879
:101950001B681946104600F079F903E00123FB7378
:1019600000E000BF7B68012283F83D207B680022F5
:1019700083F83C20FB7B18461037BD4680BD00BF76
:1019800088FFCEFF40001000300010002000100043
:1019900080B483B000AF786000BF0C37BD465DF8FF
:1019A000047B704780B483B000AF786000BF0C3711
:1019B000BD465DF8047B704780B483B000AF7860AB
:1019C00000BF0C37BD465DF8047B704780B483B020
:1019D00000AF786000BF0C37BD465DF8047B7047F0
:1019E00080B485B000AF786039607B681B68FB60AD
:1019F0007B68434A934213D07B68B3F1804F0FD08A
:101A00007B68404A93420BD07B683F4A934207D0A1
:101A10007B683E4A934203D07B683D4A934208D19B
:101A2000FB6823F07003FB603B685B68FA68134354
:101A3000FB607B68324A93421FD07B68B3F1804FD2
:101A40001BD07B682F4A934217D07B682E4A934263
:101A500013D07B682D4A93420FD07B682C4A934267
:101A60000BD07B682B4A934207D07B682A4A93426B
:101A700003D07B68294A934208D1FB6823F4407362
:101A8000FB603B68DB68FA681343FB60FB6823F08C
:101A900080023B685B691343FB603B689A687B6824
:101AA000DA623B681A687B689A627B68144A9342E0
:101AB0000FD07B68164A93420BD07B68154A93423D
:101AC00007D07B68144A934203D07B68134A934241
:101AD00003D13B681A697B681A637B681B6843F013
:101AE00004027B681A607B6801225A617B68FA688D
:101AF0001A6000BF1437BD465DF8047B704700BF15
:101B0000000001400004004000080040000C0040BC
:101B100000040140004001400044014000480140F1
:101B200080B487B000AFF860B9607A60FB681B6A68
:101B30007B61FB681B6A23F00102FB681A62FB6889
:101B40001C4A93420FD0FB681B4A93420BD0FB68A0
:101B50001A4A934207D0FB68194A934203D0FB68A4
:101B6000184A934205D1FB681B6A23F00402FB6804
:101B70001A62FB689B693B613B6923F0F0033B61A0
:101B80007B681B013A6913433B617B6923F00A03BD
:101B90007B617A69BB6813437B61FB683A699A6130
:101BA000FB687A691A6200BF1C37BD465DF8047B8A
:101BB000704700BF000001400004014000400140A8
:101BC000004401400048014080B487B000AFF86095
:101BD000B9607A60FB681B6A7B61FB681B6A23F053
:101BE0001002FB681A62FB68164A934203D0FB6836
:101BF000154A934205D1FB681B6A23F04002FB683B
:101C00001A62FB689B693B613B6923F470433B614B
:101C10007B681B033A6913433B617B6923F0A00394
:101C20007B61BB681B017A6913437B61FB683A697E
:101C30009A61FB687A691A6200BF1C37BD465DF87D
:101C4000047B7047000001400004014080B485B06F
:101C500000AF786039607B689B68FB60FA68094B6D
:101C60001340FB603A68FB68134343F00703FB60D3
:101C70007B68FA689A6000BF1437BD465DF8047B44
:101C8000704700BF8FFFCFFF80B487B000AFF86010
:101C9000B9607A603B60FB689B687B617B6923F479
:101CA0007F437B613B681A027B681A43BB6813431E
:101CB0007A6913437B61FB687A699A6000BF1C37BD
:101CC000BD465DF8047B704780B485B000AF786096
:101CD00039607B6893F83C30012B01D102236DE021
:101CE0007B68012283F83C207B68022283F83D2038
:101CF0007B681B685B68FB607B681B689B68BB60DC
:101D00007B681B68304A934204D07B681B682F4A6B
:101D1000934208D1FB6823F47003FB603B685B6867
:101D2000FA681343FB60FB6823F07003FB603B68B9
:101D30001B68FA681343FB607B681B68FA685A608B
:101D40007B681B68204A934222D07B681B68B3F1F2
:101D5000804F1DD07B681B681D4A934218D07B685A
:101D60001B681C4A934213D07B681B681A4A934233
:101D70000ED07B681B68154A934209D07B681B68AC
:101D8000164A934204D07B681B68154A93420CD1D3
:101D9000BB6823F08003BB603B689B68BA68134351
:101DA000BB607B681B68BA689A607B68012283F815
:101DB0003D207B68002283F83C200023184614371E
:101DC000BD465DF8047B70470000014000040140FF
:101DD0000004004000080040000C004000180040D3
:101DE0000040014080B483B000AF786000BF0C3782
:101DF000BD465DF8047B704780B483B000AF786067
:101E000000BF0C37BD465DF8047B704780B483B0DB
:101E100000AF786000BF0C37BD465DF8047B7047AB
:101E200080B485B000AF78607B6803F00703FB6087
:101E30000B4BDB68BB60BA684FF6FF031340BB6017
:101E4000FB681A02BB681A43064B1343BB60044A83
:101E5000BB68D36000BF1437BD465DF8047B704794
:101E600000ED00E00000FA0580B400AF044BDB6831
:101E70001B0A03F007031846BD465DF8047B704754
:101E800000ED00E080B483B000AF0346FB80B7F9FB
:101E90000630002B0BDBFB8803F01F020749B7F964
:101EA00006305B09012000FA02F241F8232000BF4E
:101EB0000C37BD465DF8047B704700BF00E100E0D1
:101EC00080B483B000AF03463960FB80B7F90630B9
:101ED000002B0ADB3B68DAB20C49B7F90630120175
:101EE000D2B20B4483F800230AE03B68DAB2084917
:101EF000FB8803F00F03043B1201D2B20B441A76A5
:101F000000BF0C37BD465DF8047B704700E100E080
:101F100000ED00E080B489B000AFF860B9607A608D
:101F2000FB6803F00703FB61FB69C3F10703042BA4
:101F300028BF0423BB61FB690433062B02D9FB696C
:101F4000033B00E000237B614FF0FF32BB6902FAE4
:101F500003F3DA43BB681A407B699A404FF0FF31C4
:101F60007B6901FA03F3D9437B680B40134318469E
:101F70002437BD465DF8047B704780B582B000AF62
:101F800078607868FFF74CFF00BF0837BD4680BD1A
:101F900080B586B000AF0346B9607A60FB81FFF779
:101FA00063FF78617A68B9687869FFF7B3FF024622
:101FB000B7F90E3011461846FFF782FF00BF1837F9
:101FC000BD4680BD80B582B000AF0346FB80B7F947
:101FD00006301846FFF756FF00BF0837BD4680BDE4
:101FE00080B400AFBFF35F8F00BF074B5B6A064A48
:101FF00023F480335362054B00225A6000BFBD4674
:102000005DF8047B704700BF00ED00E090ED00E05C
:1020100080B483B000AF78600B4A7B6843F0010363
:1020200053600A4B5B6A094A43F480335362BFF33F
:102030004F8F00BFBFF36F8F00BF00BF0C37BD468F
:102040005DF8047B704700BF90ED00E000ED00E01C
:1020500080B483B000AF78607B685A781B4B9A607D
:102060001A4B1B69194A23F001031361174A7B6855
:102070005B68D3607B681B7B1A077B68DB7A1B0677
:102080001A437B689B7ADB041A437B685B7B9B0467
:102090001A437B689B7B5B041A437B68DB7B1B04D6
:1020A0001A437B685B7A1B021A437B681B7A5B00CE
:1020B00013437A6812781146044A0B43136100BF38
:1020C0000C37BD465DF8047B704700BF90ED00E023
:1020D00080B58CB000AF78607B68002B02D1012303
:1020E00000F048BC7B681B6803F00103002B00F084
:1020F0008880994B1B6903F03803FB62964B9B6AFF
:10210000BB62FB6A102B07D0FB6A182B11D1BB6A8C
:1021100003F00303022B0CD18F4B1B6803F4003335
:10212000002B6DD07B685B68002B69D1012300F028
:1021300021BC7B685B68B3F5803F06D1864B1B688A
:10214000854A43F4803313602EE07B685B68002B84
:102150000CD1814B1B68804A23F4803313607E4B83
:102160001B687D4A23F4802313601DE07B685B6855
:10217000B3F5A02F0CD1784B1B68774A43F480232A
:102180001360754B1B68744A43F4803313600BE093
:10219000714B1B68704A23F4803313606E4B1B68CD
:1021A0006D4A23F4802313607B685B68002B13D097
:1021B00003F050F8786208E003F04CF802467B6ABE
:1021C000D31A642B01D90323D4E3634B1B6803F4B4
:1021D0000033002BF0D014E003F03CF8786208E004
:1021E00003F038F802467B6AD31A642B01D9032323
:1021F000C0E3594B1B6803F40033002BF0D100E01F
:1022000000BF7B681B6803F00203002B00F0CA804C
:10221000514B1B6903F038033B624F4B9B6AFB61D8
:102220003B6A002B07D03B6A182B56D1FB6903F0A1
:102230000303002B51D1484B1B6803F00403002B10
:1022400005D07B68DB68002B01D1012392E3424B70
:102250001B6823F019027B68DB683F4913430B605E
:1022600002F0F8FF786208E002F0F4FF02467B6AB1
:10227000D31A022B01D903237CE3374B1B6803F0ED
:102280000403002BF0D002F0F1FF034641F20302F9
:10229000934217D87B681B69402B08D12E4B5B6893
:1022A00023F47C332C4A43F4003353607AE02A4B06
:1022B0005B6823F47C327B681B691B03264913434C
:1022C0004B606FE0244B5B6823F0FE427B681B6928
:1022D0001B06214913434B6064E07B68DB68002BDD
:1022E00047D01D4B1B6823F019027B68DB681A4935
:1022F00013430B6002F0AEFF786208E002F0AAFF21
:1023000002467B6AD31A022B01D9032332E3124B14
:102310001B6803F00403002BF0D002F0A7FF034674
:1023200041F20302934219D87B681B69402B08D104
:10233000094B5B6823F47C33074A43F40033536052
:1023400030E0054B5B6823F47C327B681B691B0320
:10235000014913434B6025E0004402589A4B5B68E7
:1023600023F0FE427B681B691B06974913434B60B1
:1023700018E0954B1B68944A23F00103136002F0A8
:1023800069FF786208E002F065FF02467B6AD31AB3
:10239000022B01D90323EDE28B4B1B6803F00403EE
:1023A000002BF0D17B681B6803F01003002B00F0BA
:1023B000A980854B1B6903F03803BB61824B9B6A84
:1023C0007B61BB69082B07D0BB69182B3AD17B69AD
:1023D00003F00303012B35D17B4B1B6803F480739F
:1023E000002B05D07B68DB69802B01D00123C1E283
:1023F00002F03CFF034641F20302934217D87B6888
:102400001B6A202B08D1704B5B6823F0F8436E4A9F
:1024100043F08043536075E06B4B5B6823F0F842F8
:102420007B681B6A9B06684913434B606AE0664BF6
:10243000DB6823F07C527B681B6A1B0662491343EE
:10244000CB605FE07B68DB69002B42D05E4B1B6892
:102450005D4A43F08003136002F0FCFE786208E0FE
:1024600002F0F8FE02467B6AD31A022B01D903233D
:1024700080E2554B1B6803F48073002BF0D002F010
:10248000F5FE034641F20302934217D87B681B6AAC
:10249000202B08D14C4B5B6823F0F8434A4A43F0A9
:1024A000804353602EE0484B5B6823F0F8427B6822
:1024B0001B6A9B06444913434B6023E0424BDB6895
:1024C00023F07C527B681B6A1B063F491343CB6099
:1024D00018E03D4B1B683C4A23F08003136002F078
:1024E000B9FE786208E002F0B5FE02467B6AD31AB4
:1024F000022B01D903233DE2334B1B6803F48073A5
:10250000002BF0D17B681B6803F00803002B36D04A
:102510007B685B69002B19D02B4B5B6F2A4A43F019
:102520000103536702F096FE786208E002F092FE23
:1025300002467B6AD31A022B01D903231AE2224BEB
:102540005B6F03F00203002BF0D018E01E4B5B6FB3
:102550001D4A23F00103536702F07CFE786208E015
:1025600002F078FE02467B6AD31A022B01D90323BC
:1025700000E2154B5B6F03F00203002BF0D17B6888
:102580001B6803F02003002B39D07B689B69002B6C
:102590001CD00D4B1B680C4A43F48053136002F0AF
:1025A00059FE786208E002F055FE02467B6AD31AB3
:1025B000022B01D90323DDE1034B1B6803F4005315
:1025C000002BF0D01BE000BF004402589B4B1B685F
:1025D0009A4A23F48053136002F03CFE786208E0CC
:1025E00002F038FE02467B6AD31A022B01D903237C
:1025F000C0E1924B1B6803F40053002BF0D17B68C1
:102600001B6803F00403002B00F081808C4B1B68D7
:102610008B4A43F48073136002F01CFE786208E07A
:1026200002F018FE02467B6AD31A642B01D90323F9
:10263000A0E1834B1B6803F48073002BF0D07B6810
:102640009B68012B06D17D4B1B6F7C4A43F0010335
:1026500013672DE07B689B68002B0CD1774B1B6FB9
:10266000764A23F001031367744B1B6F734A23F000
:10267000040313671CE07B689B68052B0CD16F4B30
:102680001B6F6E4A43F0040313676C4B1B6F6B4A5E
:1026900043F0010313670BE0684B1B6F674A23F09D
:1026A00001031367654B1B6F644A23F00403136730
:1026B0007B689B68002B15D002F0CCFD78620AE0A5
:1026C00002F0C8FD02467B6AD31A41F28832934277
:1026D00001D903234EE1594B1B6F03F00203002B7A
:1026E000EED014E002F0B6FD78620AE002F0B2FD2E
:1026F00002467B6AD31A41F28832934201D90323FE
:1027000038E14E4B1B6F03F00203002BEED17B68C8
:102710005B6A002B00F02D81484B1B6903F03803E6
:10272000182B00F0BD807B685B6A022B40F09E8016
:10273000424B1B68414A23F08073136002F08AFD0C
:10274000786208E002F086FD02467B6AD31A022B0B
:1027500001D903230EE1394B1B6803F00073002BF2
:10276000F0D1364B9A6A374B13407A68916A7A688F
:10277000D26A12010A43314913438B627B681B6B97
:10278000013BC3F308027B685B6B013B5B029BB2BE
:102790001A437B689B6B013B1B0403F4FE031A4343
:1027A0007B68DB6B013B1B0603F0FE4323491343AD
:1027B0000B63224BDB6A214A23F00103D3621F4BD8
:1027C0005A6B214B13407A68926CD2001B49134319
:1027D0004B631A4BDB6A23F00C027B681B6C1749B6
:1027E0001343CB62154BDB6A23F002027B685B6C00
:1027F00012491343CB62114BDB6A104A43F4803316
:10280000D3620E4BDB6A0D4A43F40033D3620B4BA9
:10281000DB6A0A4A43F48023D362084BDB6A074A27
:1028200043F00103D362054B1B68044A43F08073F5
:10283000136002F00FFD786211E000BF00440258FF
:10284000004802580CFCFFFF0700FFFF02F002FDEA
:1028500002467B6AD31A022B01D903238AE0474B35
:102860001B6803F00073002BF0D082E0434B1B6821
:10287000424A23F08073136002F0ECFC786208E0B7
:1028800002F0E8FC02467B6AD31A022B01D903232B
:1028900070E03A4B1B6803F00073002BF0D168E046
:1028A000364B9B6A3B61354B1B6BFB607B685B6AFD
:1028B000012B31D03B6903F003027B689B6A9A428B
:1028C0002AD13B691B0903F03F027B68DB6A9A420D
:1028D00022D1FB68C3F308027B681B6B013B9A4261
:1028E0001AD1FB685B0A03F07F027B685B6B013BDC
:1028F0009A4211D1FB681B0C03F07F027B689B6B33
:10290000013B9A4208D1FB681B0E03F07F027B68F3
:10291000DB6B013B9A4201D001232BE0174B5B6B31
:10292000DB08C3F30C033B617B689B6C3A699A42FA
:102930001FD0124BDB6A114A23F00103D36202F06D
:1029400089FC786200BF02F085FC02467B6A9342F4
:10295000F9D00A4B5A6B0A4B13407A68926CD2003A
:10296000064913434B63054BDB6A044A43F00103FA
:10297000D362002318463037BD4680BD004402585C
:102980000700FFFF80B586B000AF786039607B68D4
:10299000002B01D101239CE18A4B1B6803F00F033C
:1029A0003A689A4210D9874B1B6823F00F02854979
:1029B0003B6813430B60834B1B6803F00F033A68BB
:1029C0009A4201D0012384E17B681B6803F0040371
:1029D000002B10D07B681A697B4B9B6903F0700356
:1029E0009A4208D9784B9B6923F070027B681B6977
:1029F000754913438B617B681B6803F00803002B48
:102A000010D07B685A69704BDB6903F070039A42FF
:102A100008D96D4BDB6923F070027B685B696A49FA
:102A20001343CB617B681B6803F01003002B10D0AD
:102A30007B689A69644BDB6903F4E0639A4208D9C6
:102A4000614BDB6923F4E0627B689B695E49134359
:102A5000CB617B681B6803F02003002B10D07B68E0
:102A6000DA69594B1B6A03F070039A4208D9564B36
:102A70001B6A23F070027B68DB69534913430B62C6
:102A80007B681B6803F00203002B10D07B68DA68B8
:102A90004D4B9B6903F00F039A4208D94A4B9B693F
:102AA00023F00F027B68DB68474913438B617B6827
:102AB0001B6803F00103002B55D0434B9B6923F4A3
:102AC00070627B689B68404913438B617B685B68DD
:102AD000022B07D13C4B1B6803F40033002B21D1A0
:102AE0000123F6E07B685B68032B07D1364B1B683C
:102AF00003F00073002B15D10123EAE07B685B68CB
:102B0000012B07D1304B1B6803F48073002B09D1D4
:102B10000123DEE02C4B1B6803F00403002B01D1E2
:102B20000123D6E0284B1B6923F007027B685B6812
:102B3000254913430B6102F08DFB78610AE002F036
:102B400089FB02467B69D31A41F28832934201D94C
:102B50000323BEE01C4B1B6903F038027B685B68F3
:102B6000DB009A42EBD17B681B6803F00203002B69
:102B700010D07B68DA68144B9B6903F00F039A420C
:102B800008D2114B9B6923F00F027B68DB680E496A
:102B900013438B610B4B1B6803F00F033A689A4297
:102BA00014D2084B1B6823F00F0206493B681343FD
:102BB0000B60044B1B6803F00F033A689A4205D080
:102BC000012386E000200052004402587B681B6805
:102BD00003F00403002B10D07B681A693F4B9B69FC
:102BE00003F070039A4208D23C4B9B6923F07002B9
:102BF0007B681B69394913438B617B681B6803F051
:102C00000803002B10D07B685A69344BDB6903F052
:102C100070039A4208D2314BDB6923F070027B6863
:102C20005B692E491343CB617B681B6803F010037B
:102C3000002B10D07B689A69284BDB6903F4E063B2
:102C40009A4208D2254BDB6923F4E0627B689B69DA
:102C500022491343CB617B681B6803F02003002BE0
:102C600010D07B68DA691D4B1B6A03F070039A422F
:102C700008D21A4B1B6A23F070027B68DB69174984
:102C800013430B6200F034F80246144B9B691B0A95
:102C900003F00F031249CB5C03F01F0322FA03F386
:102CA0003B610E4B9B6903F00F030D4AD35C03F0AD
:102CB0001F033A6922FA03F30A4A13600A4A3B697E
:102CC00013600A4B1B681846FEF7BAF90346FB73FC
:102CD000FB7B18461837BD4680BD00BF0044025834
:102CE000F88A0008040000200000002008000020EE
:102CF00080B489B000AFB34B1B6903F03803182BC5
:102D000000F2558101A252F823F000BF712D000896
:102D1000AF2F0008AF2F0008AF2F0008AF2F00081B
:102D2000AF2F0008AF2F0008AF2F0008972D000825
:102D3000AF2F0008AF2F0008AF2F0008AF2F0008FB
:102D4000AF2F0008AF2F0008AF2F00089D2D0008FF
:102D5000AF2F0008AF2F0008AF2F0008AF2F0008DB
:102D6000AF2F0008AF2F0008AF2F0008A32D0008D9
:102D7000944B1B6803F02003002B09D0914B1B6878
:102D8000DB0803F00303904A22FA03F3BB6111E16D
:102D90008D4BBB610EE18D4BBB610BE18C4BBB617D
:102DA00008E1884B9B6A03F003037B61854B9B6AB8
:102DB0001B0903F03F033B61824BDB6A03F0010315
:102DC000FB60804B5B6BDB08C3F30C03FA6802FB10
:102DD00003F307EE903AF8EE677AC7ED027A3B69A3
:102DE000002B00F0E1807B69022B00F083807B697F
:102DF000022B00F2A1807B69002B03D07B69012BA1
:102E000056D099E06F4B1B6803F02003002B2DD0A8
:102E10006C4B1B68DB0803F003036B4A22FA03F3D5
:102E20007B607B6807EE903AF8EE676A3B6907EED5
:102E3000903AF8EE677A86EEA77A624B1B6BC3F383
:102E4000080307EE903AF8EE676A97ED026ADFED45
:102E5000615AC6EE257A76EEA77AF7EE006A77EE2B
:102E6000A67A67EE277AC7ED077A87E03B6907EE17
:102E7000903AF8EE677ADFED586A86EEA77A514B02
:102E80001B6BC3F3080307EE903AF8EE676A97ED01
:102E9000026ADFED505AC6EE257A76EEA77AF7EE93
:102EA000006A77EEA67A67EE277AC7ED077A65E0C3
:102EB0003B6907EE903AF8EE677ADFED486A86EEF6
:102EC000A77A404B1B6BC3F3080307EE903AF8EE6A
:102ED000676A97ED026ADFED3F5AC6EE257A76EE15
:102EE000A77AF7EE006A77EEA67A67EE277AC7ED43
:102EF000077A43E03B6907EE903AF8EE677ADFED38
:102F0000386A86EEA77A2F4B1B6BC3F3080307EED4
:102F1000903AF8EE676A97ED026ADFED2E5AC6EE38
:102F2000257A76EEA77AF7EE006A77EEA67A67EE54
:102F3000277AC7ED077A21E03B6907EE903AF8EE71
:102F4000677ADFED266A86EEA77A1E4B1B6BC3F30A
:102F5000080307EE903AF8EE676A97ED026ADFED34
:102F60001D5AC6EE257A76EEA77AF7EE006A77EE5E
:102F7000A67A67EE277AC7ED077A00BF114B1B6B65
:102F80005B0A03F07F0301333B603B6807EE903A36
:102F9000B8EE677AD7ED076AC6EE877AFCEEE77A75
:102FA00017EE903ABB6105E00023BB6102E0074BDE
:102FB000BB6100BFBB6918462437BD465DF8047B82
:102FC000704700BF004402580090D00300093D0044
:102FD00000127A00000000460024744C0024744A59
:102FE0000024F44A80B582B000AFFFF781FE0246AC
:102FF000104B9B691B0A03F00F030F49CB5C03F0D6
:103000001F0322FA03F37B600A4B9B6903F00F0353
:10301000094AD35C03F01F037A6822FA03F3074AD4
:103020001360074A7B681360044B1B681846083717
:10303000BD4680BD00440258F88A00080400002004
:103040000000002080B500AFFFF7CCFF0246064B22
:10305000DB691B0903F007030449CB5C03F01F0382
:1030600022FA03F3184680BD00440258F88A00088B
:1030700080B500AFFFF7B6FF0246064BDB691B0ABF
:1030800003F007030449CB5C03F01F0322FA03F3A8
:10309000184680BD00440258F88A000880B483B006
:1030A00000AF786039607B683F221A601A4B1B6959
:1030B00003F007027B685A60174B9B6903F4706248
:1030C0007B689A60144B9B6903F00F027B68DA609F
:1030D000114B9B6903F070027B681A610E4BDB6930
:1030E00003F070027B685A610B4BDB6903F4E0620A
:1030F0007B689A61084B1B6A03F070027B68DA6197
:10310000064B1B6803F00F023B681A6000BF0C37C8
:10311000BD465DF8047B7047004402580020005211
:103120002DE9B04FCAB000AFC7F81401002387F8EB
:103130002731002387F82631D7F81431D3E900234B
:1031400002F00064002554EA050349D0D7F8143191
:103150009B6EB3F5401F2FD0B3F5401F28D8B3F5B1
:10316000001F1AD0B3F5001F22D8002B03D0B3F5EF
:10317000801F07D01CE0B84BDB6AB74A43F400332A
:10318000D3621AE0D7F8143108330221184601F04F
:103190008FFC034687F827310FE0D7F81431283326
:1031A0000221184601F036FD034687F8273104E076
:1031B000012387F8273100E000BF97F82731002B63
:1031C0000AD1A54B1B6D23F44011D7F814319B6E27
:1031D000A14A0B43136503E097F8273187F826319E
:1031E000D7F81431D3E9002302F480784FF00009B6
:1031F00058EA090347D0D7F814319B6D042B2AD81D
:1032000001A252F823F000BF1D3200082B32000843
:10321000413200085F3200085F3200088E4BDB6AE3
:103220008D4A43F40033D3621AE0D7F814310833DF
:103230000021184601F03CFC034687F827310FE0D7
:10324000D7F8143128330021184601F0E3FC034677
:1032500087F8273104E0012387F8273100E000BF19
:1032600097F82731002B0AD17B4B1B6D23F0070108
:10327000D7F814319B6D784A0B43136503E097F838
:10328000273187F82631D7F81431D3E9002302F427
:10329000007A4FF0000B5AEA0B034CD0D7F81431E8
:1032A000DB6DB3F5807F30D0B3F5807F29D8C02B9C
:1032B0002DD0C02B25D8802B18D0802B21D8002BC7
:1032C00002D0402B07D01CE0634BDB6A624A43F418
:1032D0000033D3621CE0D7F81431083300211846BC
:1032E00001F0E6FB034687F8273111E0D7F81431E7
:1032F00028330021184601F08DFC034687F827315A
:1033000006E0012387F8273102E000BF00E000BF9C
:1033100097F82731002B0AD14F4B1B6D23F4E07136
:10332000D7F81431DB6D4C4A0B43136503E097F873
:10333000273187F82631D7F81431D3E9002302F476
:103340008063C7F808310023C7F80C31D7E942126F
:103350000B46134353D0D7F81431D3F8A830B3F544
:10336000000F35D0B3F5000F2ED8B3F5C00F31D014
:10337000B3F5C00F28D8B3F5800F1AD0B3F5800F7E
:1033800022D8002B03D0B3F5001F07D01CE0324B2E
:10339000DB6A314A43F40033D3621CE0D7F81431BE
:1033A00008330021184601F083FB034687F82731D4
:1033B00011E0D7F8143128330021184601F02AFC17
:1033C000034687F8273106E0012387F8273102E01A
:1033D00000BF00E000BF97F82731002B0BD11E4B38
:1033E0009B6D23F46001D7F81431D3F8A8301A4A42
:1033F0000B43936503E097F8273187F82631D7F818
:103400001431D3E9002302F40063C7F8003100232C
:10341000C7F80431D7E940120B46134356D0D7F80A
:103420001431D3F8AC30B3F1806F38D0B3F1806F82
:1034300031D8B3F1407F34D0B3F1407F2BD8B3F112
:10344000007F1DD0B3F1007F25D8002B06D0B3F14B
:10345000807F0AD01FE000BF00440258A24BDB6A05
:10346000A14A43F40033D3621CE0D7F81431083387
:103470000021184601F01CFB034687F8273111E0B4
:10348000D7F8143128330021184601F0C3FB034656
:1034900087F8273106E0012387F8273102E000BFD3
:1034A00000E000BF97F82731002B0BD18E4B9B6DAE
:1034B00023F0E061D7F81431D3F8AC308A4A0B43DB
:1034C000936503E097F8273187F82631D7F8143150
:1034D000D3E9002302F00073C7F8F8300023C7F8DF
:1034E000FC30D7E93E120B4613433AD0D7F81431DB
:1034F000DB6C302B1FD0302B19D8202B0CD0202B7D
:1035000015D8002B19D0102B11D1774BDB6A764AD6
:1035100043F40033D36211E0D7F8143108330221A9
:10352000184601F0C5FA034687F8273106E0012363
:1035300087F8273102E000BF00E000BF97F827318D
:10354000002B0AD1684BDB6C23F03001D7F8143123
:10355000DB6C654A0B43D36403E097F8273187F8A7
:103560002631D7F81431D3E9002302F48053C7F889
:10357000F0300023C7F8F430D7E93C120B46134370
:1035800051D0D7F814311B6EB3F5804F35D0B3F559
:10359000804F2ED8B3F5405F31D0B3F5405F28D8C7
:1035A000B3F5005F1AD0B3F5005F22D8002B03D02B
:1035B000B3F5805F07D01CE04B4BDB6A4A4A43F40B
:1035C0000033D3621CE0D7F81431083300211846C9
:1035D00001F06EFA034687F8273111E0D7F814316D
:1035E00028330021184601F015FB034687F82731E0
:1035F00006E0012387F8273102E000BF00E000BFAA
:1036000097F82731002B0AD1374B1B6D23F4E0418B
:10361000D7F814311B6E344A0B43136503E097F857
:10362000273187F82631D7F81431D3E9002302F483
:103630000053C7F8E8300023C7F8EC30D7E93A1256
:103640000B46134356D0D7F814315B6EB3F5A02F59
:1036500033D0B3F5A02F2CD8B3F5802F2FD0B3F5EE
:10366000802F26D8B3F5403F2BD0B3F5403F20D86C
:10367000B3F5003F12D0B3F5003F1AD8002B22D08B
:10368000B3F5803F15D1D7F814310833012118461E
:1036900001F00EFA034687F8273115E0D7F8143108
:1036A00028330121184601F0B5FA034687F827317F
:1036B0000AE0012387F8273106E000BF04E000BFDD
:1036C00002E000BF00E000BF97F82731002B0DD1CA
:1036D000054B1B6D23F4E021D7F814315B6E024AD1
:1036E0000B43136506E000BF0044025897F82731EA
:1036F00087F82631D7F81431D3E9002302F4804348
:10370000C7F8E0300023C7F8E430D7E938120B4699
:10371000134355D0D7F81431D3F8B030B3F1A04FDC
:1037200033D0B3F1A04F2CD8B3F1804F2FD0B3F1E9
:10373000804F26D8B3F1405F2BD0B3F1405F20D843
:10374000B3F1005F12D0B3F1005F1AD8002B22D082
:10375000B3F1805F15D1D7F8143108330121184631
:1037600001F0A6F9034687F8273115E0D7F81431A0
:1037700028330121184601F04DFA034687F8273116
:103780000AE0012387F8273106E000BF04E000BF0C
:1037900002E000BF00E000BF97F82731002B0BD1FB
:1037A000A34B9B6D23F0E041D7F81431D3F8B03030
:1037B0009F4A0B43936503E097F8273187F826313A
:1037C000D7F81431D3E9002302F40043C7F8D83006
:1037D0000023C7F8DC30D7E936120B46134337D045
:1037E000D7F814311B6FB3F1005F0ED0B3F1005F57
:1037F00016D8002B18D0B3F1805F11D18C4BDB6A47
:103800008B4A43F40033D3620FE0D7F81431083306
:103810000121184601F04CF9034687F8273104E0EE
:10382000012387F8273100E000BF97F82731002BEC
:103830000AD17F4B1B6D23F04051D7F814311B6F19
:103840007B4A0B43136503E097F8273187F826314D
:10385000D7F81431D3E9002302F08073C7F8D030D1
:103860000023C7F8D430D7E934120B46134339D0BC
:10387000D7F814319B6C032B1CD801A252F823F00B
:10388000BD380008913800089F380008BD3800088E
:10389000674BDB6A664A43F40033D3620FE0D7F824
:1038A000143108330221184601F002F9034687F863
:1038B000273104E0012387F8273100E000BF97F8A3
:1038C0002731002B0AD15A4BDB6C23F00301D7F8C8
:1038D00014319B6C564A0B43D36403E097F82731AD
:1038E00087F82631D7F81431D3E9002302F4800396
:1038F000C7F8C8300023C7F8CC30D7E932120B46DE
:10390000134300F09F804B4B1B684A4A43F480737B
:10391000136001F09FFCC7F820010BE001F09AFC56
:103920000246D7F82031D31A642B03D9032387F832
:10393000273105E03F4B1B6803F48073002BEDD06B
:1039400097F82731002B79D1394B1A6FD7F81431FA
:10395000D3F8B430534003F44073002B15D0344BEC
:103960001B6F23F44073C7F81C31314B1B6F304A77
:1039700043F4803313672E4B1B6F2D4A23F480339F
:1039800013672B4AD7F81C311367D7F81431D3F8D3
:10399000B430B3F5807F18D101F05CFCC7F820018A
:1039A0000DE001F057FC0246D7F82031D21A41F25F
:1039B00088339A4203D9032387F8273105E01C4B4B
:1039C0001B6F03F00203002BEBD097F82731002B7D
:1039D00029D1D7F81431D3F8B43003F44073B3F5D8
:1039E000407F0ED1124B1B6923F47C51D7F8143160
:1039F000D3F8B4301A09104B13400D4A0B4313612E
:103A000005E00B4B1B690A4A23F47C531361084BF6
:103A1000196FD7F81431D3F8B430C3F30B03044A49
:103A20000B4313670EE097F8273187F8263109E03A
:103A30000044025800480258CFFFFF0097F8273192
:103A400087F82631D7F81431D3E9002302F00103B7
:103A5000C7F8C0300023C7F8C430D7E930120B468E
:103A6000134300F08980D7F81431DB6F282B6BD813
:103A700001A252F823F000BF513B0008493B000867
:103A8000493B0008493B0008493B0008493B000806
:103A9000493B0008493B00081D3B0008493B000822
:103AA000493B0008493B0008493B0008493B0008E6
:103AB000493B0008493B0008333B0008493B0008EC
:103AC000493B0008493B0008493B0008493B0008C6
:103AD000493B0008493B0008513B0008493B0008AE
:103AE000493B0008493B0008493B0008493B0008A6
:103AF000493B0008493B0008513B0008493B00088E
:103B0000493B0008493B0008493B0008493B000885
:103B1000493B0008493B0008513B0008D7F81431E5
:103B200008330121184600F0C3FF034687F8273108
:103B30000FE0D7F8143128330121184601F06AF854
:103B4000034687F8273104E0012387F8273100E096
:103B500000BF97F82731002B0AD1BF4B5B6D23F0D4
:103B60003801D7F81431DB6FBB4A0B43536503E0D0
:103B700097F8273187F82631D7F81431D3E9002395
:103B800002F00203C7F8B8300023C7F8BC30D7E909
:103B90002E120B46134341D0D7F814319B6F052BDF
:103BA00024D801A252F823F0F53B0008C13B0008DD
:103BB000D73B0008F53B0008F53B0008F53B000843
:103BC000D7F8143108330121184600F071FF03467D
:103BD00087F827310FE0D7F8143128330121184630
:103BE00001F018F8034687F8273104E0012387F82D
:103BF000273100E000BF97F82731002B0AD1964B00
:103C00005B6D23F00701D7F814319B6F924A0B4389
:103C1000536503E097F8273187F82631D7F8143138
:103C2000D3E9002302F00403C7F8B0300023C7F83B
:103C3000B430D7E92C120B46134344D0D7F81431D3
:103C4000D3F89430052B25D801A252F823F000BFF9
:103C50009D3C0008693C00087F3C00089D3C000832
:103C60009D3C00089D3C0008D7F814310833012121
:103C7000184600F01DFF034687F827310FE0D7F8FC
:103C8000143128330121184600F0C4FF034687F899
:103C9000273104E0012387F8273100E000BF97F8BF
:103CA0002731002B0BD16C4B9B6D23F00701D7F80C
:103CB0001431D3F89430684A0B43936503E097F8C6
:103CC000273187F82631D7F81431D3E9002302F0E1
:103CD0002003C7F8A8300023C7F8AC30D7E92A1270
:103CE0000B46134355D0D7F81431D3F89030B3F1C5
:103CF000A04F33D0B3F1A04F2CD8B3F1804F2FD0C9
:103D0000B3F1804F26D8B3F1405F2BD0B3F1405FC1
:103D100020D8B3F1005F12D0B3F1005F1AD8002BA6
:103D200022D0B3F1805F15D1D7F8143108330021C8
:103D3000184600F0BDFE034687F8273115E0D7F896
:103D4000143128330221184600F064FF034687F837
:103D500027310AE0012387F8273106E000BF04E09D
:103D600000BF02E000BF00E000BF97F82731002B42
:103D70000BD1394B5B6D23F0E041D7F81431D3F808
:103D80009030354A0B43536503E097F8273187F8A5
:103D90002631D7F81431D3E9002302F04003C7F8E5
:103DA000A0300023C7F8A430D7E928120B461343EC
:103DB00058D0D7F81431D3F89C30B3F5A05F33D086
:103DC000B3F5A05F2CD8B3F5805F2FD0B3F5805F3B
:103DD00026D8B3F5406F2BD0B3F5406F20D8B3F59C
:103DE000006F12D0B3F5006F1AD8002B22D0B3F5B4
:103DF000806F15D1D7F8143108330021184600F030
:103E000057FE034687F8273115E0D7F814312833D9
:103E10000221184600F0FEFE034687F827310AE02B
:103E2000012387F8273106E000BF04E000BF02E06D
:103E300000BF00E000BF97F82731002B0ED1064BE2
:103E40009B6D23F4E051D7F81431D3F89C30024A2B
:103E50000B43936506E000BF0044025897F82731F2
:103E600087F82631D7F81431D3E9002302F0800314
:103E7000C7F898300023C7F89C30D7E926120B46C4
:103E8000134355D0D7F81431D3F8A030B3F5204FF1
:103E900033D0B3F5204F2CD8B3F5004F2FD0B3F566
:103EA000004F26D8B3F5C04F2BD0B3F5C04F20D864
:103EB000B3F5804F12D0B3F5804F1AD8002B22D023
:103EC000B3F5005F15D1D7F8143108330021184637
:103ED00000F0EEFD034687F8273115E0D7F81431DE
:103EE00028330221184600F095FE034687F8273153
:103EF0000AE0012387F8273106E000BF04E000BF95
:103F000002E000BF00E000BF97F82731002B0BD183
:103F1000A14B9B6D23F46041D7F81431D3F8A03046
:103F20009D4A0B43936503E097F8273187F82631C4
:103F3000D7F81431D3E9002302F00803C7F8903012
:103F40000023C7F89430D7E924120B4613431ED040
:103F5000D7F81431D3F88430B3F5805F0CD1D7F89B
:103F6000143128330221184600F054FE0346002B7A
:103F700002D0012387F82631874B5B6D23F4405133
:103F8000D7F81431D3F88430834A0B435365D7F8FC
:103F90001431D3E9002302F01003C7F8883000235E
:103FA000C7F88C30D7E922120B4613431ED0D7F83E
:103FB0001431D3F89830B3F5807F0CD1D7F8143191
:103FC00028330221184600F025FE0346002B02D0BC
:103FD000012387F82631704B9B6D23F44071D7F88D
:103FE0001431D3F898306C4A0B439365D7F81431E9
:103FF000D3E9002302F40023C7F880300023C7F878
:104000008430D7E920120B4613433ED0D7F8143141
:10401000D3F8A430B3F5003F22D0B3F5003F1BD84E
:10402000002B03D0B3F5803F0BD015E0D7F8143147
:1040300008330021184600F03BFD034687F827317E
:104040000FE0D7F8143128330221184600F0E2FDC2
:10405000034687F8273104E0012387F8273100E081
:1040600000BF97F82731002B0BD14B4B9B6D23F4EE
:104070004031D7F81431D3F8A430474A0B43936545
:1040800003E097F8273187F82631D7F81431D3E9C0
:10409000002302F48023BB670023FB67D7E91E12CD
:1040A0000B4613433BD0D7F81431D3F88830B3F51F
:1040B000401F1FD0B3F5401F18D8B3F5801F03D0A1
:1040C000B3F5001F07D011E0334BDB6A324A43F4EB
:1040D0000033D3620FE0D7F814312833012118469A
:1040E00000F098FD034687F8273104E0012387F8A4
:1040F000273100E000BF97F82731002B0BD1264B6A
:104100005B6D23F44011D7F81431D3F88830224A7C
:104110000B43536503E097F8273187F82631D7F82A
:104120001431D3E9002302F480333B6700237B671B
:10413000D7E91C120B46134334D0D7F814311B6D4A
:10414000002B03D0B3F5803F07D011E0124BDB6AA0
:10415000114A43F40033D3620EE0D7F81431083328
:104160000221184600F0A4FC034687F8273103E03B
:10417000012387F8273100BF97F82731002B0DD195
:10418000054BDB6C23F48031D7F814311B6D024AE8
:104190000B43D36406E000BF0044025897F8273170
:1041A00087F82631D7F81431D3E9002302F0005301
:1041B000BB660023FB66D7E91A120B4613430CD0EB
:1041C000D7F8143128330221184600F023FD0346A6
:1041D000002B02D0012387F82631D7F81431D3E918
:1041E000002302F400333B6600237B66D7E91812F4
:1041F0000B46134338D0D7F81431D3F88030B3F5D9
:10420000407F18D0B3F5407F11D8B3F5007F14D0AC
:10421000B3F5007F0BD8002B11D0B3F5807F06D10A
:10422000C34BDB6AC24A43F40033D36208E0012384
:1042300087F8273104E000BF02E000BF00E000BFC4
:1042400097F82731002B0BD1B94B5B6D23F44071EC
:10425000D7F81431D3F88030B54A0B43536503E0E7
:1042600097F8273187F82631D7F81431D3E900239E
:1042700002F48013BB650023FB65D7E916120B46D9
:10428000134309D0AA4B1B6D23F00041D7F814311A
:104290005B6FA74A0B431365D7F81431D3E90023AA
:1042A00002F080533B6500237B65D7E914120B466F
:1042B00013430AD09E4B1B6923F48041D7F8143175
:1042C000D3F8B8309A4A0B431361D7F81431D3E9C5
:1042D000002302F40013BB640023FB64D7E912122D
:1042E0000B46134309D0924B1B6D23F08071D7F816
:1042F0001431DB6E8E4A0B431365D7F81431D3E9C2
:10430000002302F080433B6400237B64D7E9101252
:104310000B4613430ED0864B1B69854A23F400439A
:104320001361834B1969D7F81431D3F8BC30804A34
:104330000B431361D7F81431D3E9002302F0004393
:10434000BB630023FB63D7E90E120B46134309D06E
:10435000774BDB6C23F04051D7F814315B6D744A16
:104360000B43D364D7F81431D3E9002302F40003DC
:104370003B6300237B63D7E90C120B4613430AD03F
:104380006B4B5B6D23F44001D7F81431D3F88C30BC
:10439000674A0B435365D7F81431D3E90023002152
:1043A000B96203F00103FB62D7E90A120B4613431B
:1043B00011D0D7F8143108330021184600F078FBEB
:1043C000034687F8273197F82731002B03D097F859
:1043D000273187F82631D7F81431D3E9002300219B
:1043E000396203F002037B62D7E908120B461343DC
:1043F00011D0D7F8143108330121184600F058FBCA
:10440000034687F8273197F82731002B03D097F818
:10441000273187F82631D7F81431D3E9002300215A
:10442000B96103F00403FB61D7E906120B4613439D
:1044300011D0D7F8143108330221184600F038FBA8
:10444000034687F8273197F82731002B03D097F8D8
:10445000273187F82631D7F81431D3E9002300211A
:10446000396103F008037B61D7E904120B4613435B
:1044700011D0D7F8143128330021184600F0CAFBB8
:10448000034687F8273197F82731002B03D097F898
:10449000273187F82631D7F81431D3E900230021DA
:1044A000B96003F01003FB60D7E902120B46134317
:1044B00011D0D7F8143128330121184600F0AAFB97
:1044C000034687F8273197F82731002B03D097F858
:1044D000273187F82631D7F81431D3E9002300219A
:1044E000396003F020037B60D7E900120B461343C9
:1044F00011D0D7F8143128330221184600F08AFB76
:10450000034687F8273197F82731002B03D097F817
:10451000273187F8263197F82631002B01D1002367
:1045200000E00123184607F59477BD46BDE8B08F3B
:104530000044025880B500AFFEF754FD0246064B1A
:104540001B6A1B0903F007030449CB5C03F01F033C
:1045500022FA03F3184680BD00440258F88A000886
:1045600080B489B000AF7860A14B9B6A03F003036D
:10457000BB619F4B9B6A1B0B03F03F037B619C4B12
:10458000DB6A1B0903F001033B61994BDB6BDB0822
:10459000C3F30C033A6902FB03F307EE903AF8EE1B
:1045A000677AC7ED037A7B69002B00F01181BB6944
:1045B000022B00F08380BB69022B00F2A180BB6953
:1045C000002B03D0BB69012B56D099E0884B1B68A8
:1045D00003F02003002B2DD0854B1B68DB0803F074
:1045E0000303844A22FA03F3BB60BB6807EE903AE8
:1045F000F8EE676A7B6907EE903AF8EE677A86EE26
:10460000A77A7B4B9B6BC3F3080307EE903AF8EE57
:10461000676A97ED036ADFED785AC6EE257A76EE83
:10462000A77AF7EE006A77EEA67A67EE277AC7EDEB
:10463000077A87E07B6907EE903AF8EE677ADFED5C
:104640006F6A86EEA77A6A4B9B6BC3F3080307EE8B
:10465000903AF8EE676A97ED036ADFED675AC6EEA7
:10466000257A76EEA77AF7EE006A77EEA67A67EEFD
:10467000277AC7ED077A65E07B6907EE903AF8EE96
:10468000677ADFED5F6A86EEA77A594B9B6BC3F3BF
:10469000080307EE903AF8EE676A97ED036ADFEDDC
:1046A000565AC6EE257A76EEA77AF7EE006A77EECE
:1046B000A67A67EE277AC7ED077A43E07B6907EEB3
:1046C000903AF8EE677ADFED4F6A86EEA77A484BAC
:1046D0009B6BC3F3080307EE903AF8EE676A97ED19
:1046E000036ADFED455AC6EE257A76EEA77AF7EE35
:1046F000006A77EEA67A67EE277AC7ED077A21E09F
:104700007B6907EE903AF8EE677ADFED3D6A86EE58
:10471000A77A374B9B6BC3F3080307EE903AF8EE8A
:10472000676A97ED036ADFED345AC6EE257A76EEB6
:10473000A77AF7EE006A77EEA67A67EE277AC7EDDA
:10474000077A00BF2A4B9B6B5B0A03F07F0307EEDF
:10475000903AF8EE677AB7EE007A37EE877AD7EDBF
:10476000076AC6EE877AFCEEE77A17EE902A7B6836
:104770001A601F4B9B6B1B0C03F07F0307EE903AF4
:10478000F8EE677AB7EE007A37EE877AD7ED076AE8
:10479000C6EE877AFCEEE77A17EE902A7B685A60BD
:1047A000134B9B6B1B0E03F07F0307EE903AF8EE62
:1047B000677AB7EE007A37EE877AD7ED076AC6EEEA
:1047C000877AFCEEE77A17EE902A7B689A6008E019
:1047D0007B6800221A607B6800225A607B68002296
:1047E0009A6000BF2437BD465DF8047B704700BF68
:1047F000004402580090D003000000460024744C8E
:104800000024744A0024F44A80B489B000AF786070
:10481000A14B9B6A03F00303BB619F4B9B6A1B0D7B
:1048200003F03F037B619C4BDB6A1B0A03F001032F
:104830003B61994B5B6CDB08C3F30C033A6902FBE9
:1048400003F307EE903AF8EE677AC7ED037A7B69D7
:10485000002B00F01181BB69022B00F08380BB6943
:10486000022B00F2A180BB69002B03D0BB69012B96
:1048700056D099E0884B1B6803F02003002B2DD005
:10488000854B1B68DB0803F00303844A22FA03F319
:10489000BB60BB6807EE903AF8EE676A7B6907EE8B
:1048A000903AF8EE677A86EEA77A7B4B1B6CC3F3DF
:1048B000080307EE903AF8EE676A97ED036ADFEDBA
:1048C000785AC6EE257A76EEA77AF7EE006A77EE8A
:1048D000A67A67EE277AC7ED077A87E07B6907EE4D
:1048E000903AF8EE677ADFED6F6A86EEA77A6A4B48
:1048F0001B6CC3F3080307EE903AF8EE676A97ED76
:10490000036ADFED675AC6EE257A76EEA77AF7EEF0
:10491000006A77EEA67A67EE277AC7ED077A65E038
:104920007B6907EE903AF8EE677ADFED5F6A86EE14
:10493000A77A594B1B6CC3F3080307EE903AF8EEC5
:10494000676A97ED036ADFED565AC6EE257A76EE72
:10495000A77AF7EE006A77EEA67A67EE277AC7EDB8
:10496000077A43E07B6907EE903AF8EE677ADFED6D
:104970004F6A86EEA77A484B1B6CC3F3080307EE19
:10498000903AF8EE676A97ED036ADFED455AC6EE96
:10499000257A76EEA77AF7EE006A77EEA67A67EECA
:1049A000277AC7ED077A21E07B6907EE903AF8EEA7
:1049B000677ADFED3D6A86EEA77A374B1B6CC3F34F
:1049C000080307EE903AF8EE676A97ED036ADFEDA9
:1049D000345AC6EE257A76EEA77AF7EE006A77EEBD
:1049E000A67A67EE277AC7ED077A00BF2A4B1B6CC1
:1049F0005B0A03F07F0307EE903AF8EE677AB7EEB2
:104A0000007A37EE877AD7ED076AC6EE877AFCEE32
:104A1000E77A17EE902A7B681A601F4B1B6C1B0C01
:104A200003F07F0307EE903AF8EE677AB7EE007A6C
:104A300037EE877AD7ED076AC6EE877AFCEEE77A1B
:104A400017EE902A7B685A60134B1B6C1B0E03F009
:104A50007F0307EE903AF8EE677AB7EE007A37EE0A
:104A6000877AD7ED076AC6EE877AFCEEE77A17EE0B
:104A7000902A7B689A6008E07B6800221A607B6855
:104A800000225A607B6800229A6000BF2437BD462E
:104A90005DF8047B704700BF004402580090D003CB
:104AA000000000460024744C0024744A0024F44A98
:104AB00080B584B000AF786039600023FB73534B3E
:104AC0009B6A03F00303032B01D1012399E04F4BB1
:104AD0001B684E4A23F08063136000F0BBFBB86094
:104AE00008E000F0B7FB0246BB68D31A022B01D9DD
:104AF000032386E0454B1B6803F00063002BF0D1D5
:104B0000424B9B6A23F47C327B681B681B033F4942
:104B100013438B627B685B68013BC3F308027B68CD
:104B20009B68013B5B029BB21A437B68DB68013BDD
:104B30001B0403F4FE031A437B681B69013B1B063D
:104B400003F0FE43314913438B63304BDB6A23F0A0
:104B5000C0027B685B692D491343CB622B4BDB6A38
:104B600023F020027B689B6928491343CB62274BC3
:104B7000DB6A264A23F01003D362244BDA6B244B02
:104B800013407A68D269D20020491343CB631F4B8C
:104B9000DB6A1E4A43F01003D3623B68002B06D148
:104BA0001A4BDB6A194A43F40023D3620FE03B68D7
:104BB000012B06D1154BDB6A144A43F48013D362F0
:104BC00005E0124BDB6A114A43F40013D3620F4B2A
:104BD0001B680E4A43F08063136000F03BFBB86033
:104BE00008E000F037FB0246BB68D31A022B01D95C
:104BF000032306E0054B1B6803F00063002BF0D095
:104C0000FB7B18461037BD4680BD00BF00440258EC
:104C10000700FFFF80B584B000AF786039600023E3
:104C2000FB73534B9B6A03F00303032B01D1012356
:104C300099E04F4B1B684E4A23F08053136000F0FD
:104C400009FBB86008E000F005FB0246BB68D31A18
:104C5000022B01D9032386E0454B1B6803F0005368
:104C6000002BF0D1424B9B6A23F07C727B681B685F
:104C70001B053F4913438B627B685B68013BC3F3B1
:104C800008027B689B68013B5B029BB21A437B680E
:104C9000DB68013B1B0403F4FE031A437B681B69BA
:104CA000013B1B0603F0FE43314913430B64304BB9
:104CB000DB6A23F440627B685B692D491343CB6256
:104CC0002B4BDB6A23F400727B689B6928491343F2
:104CD000CB62274BDB6A264A23F48073D362244BD2
:104CE0005A6C244B13407A68D269D200204913438E
:104CF0004B641F4BDB6A1E4A43F48073D3623B68EC
:104D0000002B06D11A4BDB6A194A43F48003D362A5
:104D10000FE03B68012B06D1154BDB6A144A43F4C4
:104D20000003D36205E0124BDB6A114A43F0807343
:104D3000D3620F4B1B680E4A43F08053136000F0A0
:104D400089FAB86008E000F085FA0246BB68D31A19
:104D5000022B01D9032306E0054B1B6803F0005327
:104D6000002BF0D0FB7B18461037BD4680BD00BF3E
:104D7000004402580700FFFF80B489B000AF78609C
:104D800039600023FB618E4B7B619EE13B681A68B2
:104D90000121FB6901FA03F313403B613B69002BDE
:104DA00000F090813B685B6803F00303012B05D0A2
:104DB0003B685B6803F00303022B30D17B689B6880
:104DC000BB61FB695B00032202FA03F3DB43BA69B0
:104DD0001340BB613B68DA68FB695B0002FA03F3CE
:104DE000BA691343BB617B68BA699A607B685B6888
:104DF000BB610122FB6902FA03F3DB43BA6913408A
:104E0000BB613B685B681B0903F00102FB6902FAA6
:104E100003F3BA691343BB617B68BA695A603B68A4
:104E20005B6803F00303032B09D13B685B6803F065
:104E30000303032B1BD13B689B68012B17D07B68B6
:104E4000DB68BB61FB695B00032202FA03F3DB430F
:104E5000BA691340BB613B689A68FB695B0002FA60
:104E600003F3BA691343BB617B68BA69DA603B68D4
:104E70005B6803F00303022B23D1FB69DA087B682C
:104E8000083253F82230BB61FB6903F007039B0033
:104E90000F2202FA03F3DB43BA691340BB613B689C
:104EA0001A69FB6903F007039B0002FA03F3BA696E
:104EB0001343BB61FB69DA087B680832B96943F8C0
:104EC00022107B681B68BB61FB695B00032202FA4E
:104ED00003F3DB43BA691340BB613B685B6803F0D3
:104EE0000302FB695B0002FA03F3BA691343BB6177
:104EF0007B68BA691A603B685B6803F44033002B37
:104F000000F0E0802F4BD3F8F4302E4A43F0020338
:104F1000C2F8F4302B4BD3F8F43003F00203FB60FB
:104F2000FB68294AFB699B08023352F82330BB61B6
:104F3000FB6903F003039B000F2202FA03F3DB4338
:104F4000BA691340BB617B68204A934252D07B68A8
:104F50001F4A934231D07B681E4A93422BD07B6814
:104F60001D4A934225D07B681C4A93421FD07B6820
:104F70001B4A934219D07B681A4A934213D07B682C
:104F8000194A93420DD07B68184A934207D07B6838
:104F9000174A934201D109232DE00A232BE008236D
:104FA00029E0072327E0062325E0052323E0042347
:104FB00021E003231FE002231DE001231BE000BFCB
:104FC00080000058004402580004005800000258B5
:104FD0000004025800080258000C02580010025841
:104FE0000014025800180258001C025800200258F1
:104FF000002402580023FA6902F003029200934051
:10500000BA691343BB613849FB699B080233BA692B
:1050100041F823204FF0B0431B68BB613B69DB4381
:10502000BA691340BB613B685B6803F48013002BD3
:1050300003D0BA693B691343BB614FF0B042BB690F
:1050400013604FF0B0435B68BB613B69DB43BA69F7
:105050001340BB613B685B6803F40013002B03D073
:10506000BA693B691343BB614FF0B042BB695360FF
:105070007B695B68BB613B69DB43BA691340BB6119
:105080003B685B6803F40033002B03D0BA693B69CB
:105090001343BB617B69BA695A607B691B68BB615A
:1050A0003B69DB43BA691340BB613B685B6803F44F
:1050B0008033002B03D0BA693B691343BB617B6922
:1050C000BA691A60FB690133FB613B681A68FB69C6
:1050D00022FA03F3002B7FF459AE00BF00BF243740
:1050E000BD465DF8047B70470004005880B483B06F
:1050F00000AF78600B467B8013467B707B78002B7B
:1051000003D07A887B689A6103E07B881A047B6805
:105110009A6100BF0C37BD465DF8047B7047000004
:1051200080B400AF054B1B68044A43F480731360DE
:1051300000BFBD465DF8047B704700BF00480258C1
:1051400080B584B000AF7860194BDB6803F00403CE
:10515000042B0AD0164BDB6803F007037A689A42E7
:1051600001D001231FE000231DE0114BDB6823F079
:1051700007020F497B681343CB6000F06BF8F860BF
:1051800009E000F067F80246FB68D31AB3F57A7FAE
:1051900001D9012307E0064B5B6803F40053B3F524
:1051A000005FEED1002318461037BD4680BD00BF1A
:1051B0000048025880B582B000AF0320FCF7DDFE46
:1051C000FDF796FD0246154B9B691B0A03F00F0382
:1051D0001349CB5C03F01F0322FA03F37B600F4BF0
:1051E0009B6903F00F030E4AD35C03F01F037A6838
:1051F00022FA03F30B4A13600B4A7B6813600F20FB
:10520000FBF71EFF0346002B01D0012302E0FBF752
:10521000FDFE002318460837BD4680BD00440258F5
:10522000F88A0008040000200000002080B400AFCD
:10523000064B1B781A46064B1B681344044A13603E
:1052400000BFBD465DF8047B704700BF0C00002026
:105250007802002080B400AF034B1B681846BD469F
:105260005DF8047B704700BF7802002080B400AF77
:10527000034B1B681B0C1846BD465DF8047B70474A
:105280000010005C80B487B000AFF8600B467A6015
:10529000FB720023FB75FB68002B01D101230AE0A0
:1052A000FB7A002B03D1FB687A685A6002E0012385
:1052B000FB7500BFFB7D18461C37BD465DF8047BBF
:1052C000704780B483B000AF786039607B68002B92
:1052D00001D1012303E07B683A681A600023184675
:1052E0000C37BD465DF8047B7047000080B586B082
:1052F00000AF78607B681B681B0C03F003037B61C5
:105300007B681B6803F01F03012202FA03F33B6171
:105310007B691A010C4B1344FB60FB681B683A69FC
:105320001340BB60BB68002B09D0FB683A691A6068
:105330007B685B68002B02D07B685B68984700BF86
:105340001837BD4680BD00BF8800005880B584B0C6
:1053500000AF78607B68002B01D1012354E07B68AB
:105360005B7ADBB2002B05D17B6800221A72786869
:10537000FBF7EAFC7B6802225A727B681B681B6899
:1053800023F020017B685A687B681B680A431A6017
:105390007B681B681A687B681B6842F004021A600D
:1053A0007B681B685B6803F04003402B04D17B687B
:1053B00004225A72012327E0FFF74CFFF86015E042
:1053C000FFF748FF0246FB68D31A022B0ED97B6811
:1053D0001B685B6803F00103012B07D07B68042284
:1053E0005A727B680222DA6001230DE07B681B6839
:1053F0005B6803F00103012BE2D17B6801225A7242
:105400007B680022DA60002318461037BD4680BD55
:1054100080B584B000AF78600123FB737B68002BFC
:1054200071D07B6893F82130DBB2002B06D17B680A
:10543000002283F820207868FBF71CFD7B6802229D
:1054400083F821207B681B68DB6803F01003102BB6
:1054500050D07B681B68CA225A627B681B68532243
:105460005A62786800F0A0F90346FB73FB7B002BBF
:1054700024D17B681B6899687B681A68244B0B40B1
:1054800093607B681B6899687B685A687B681B69B6
:105490001A437B689B691A437B681B680A439A60BE
:1054A0007B689B6819047B68DA687B681B680A4321
:1054B0001A61786800F0ACF90346FB73FB7B002BA4
:1054C00013D17B681B68DA6C7B681B6822F00302CF
:1054D000DA647B681B68D96C7B68DA697B685B6916
:1054E0001A437B681B680A43DA647B681B68FF22E7
:1054F0005A6201E00023FB73FB7B002B03D17B6826
:10550000012283F82120FB7B18461037BD4680BD61
:10551000BFFF8FFF90B587B000AFF860B9607A60C9
:10552000FB6893F82030012B01D1022389E0FB684E
:10553000012283F82020FB68022283F82120FB68E7
:105540001B68CA225A62FB681B6853225A62F868B9
:1055500000F02AF90346FB74FB7C002B61D17B68C9
:10556000002B26D1FB681B689B6803F04003002BCF
:1055700002D1BB680022DA70BB681B78184600F0C5
:1055800085F903461C04BB685B78184600F07EF979
:1055900003461B021C43BB689B78184600F076F953
:1055A000034644EA0302BB68DB789B0513437B6137
:1055B00018E0FB681B689B6803F04003002B02D1D6
:1055C000BB680022DA70BB681B781A04BB685B7882
:1055D0001B021343BA6892781A43BB68DB789B05B9
:1055E00013437B61FB681A687969184B0B401360A1
:1055F000FB681B689A68FB681B6822F480229A602B
:10560000FB681B689968BB68DA68BB681B691A434A
:10561000FB681B680A439A60F86800F0F9F80346D3
:10562000FB74FB681B68FF225A62FB7C002B03D1D2
:10563000FB68012283F82120FB68002283F82020E8
:10564000FB7C18461C37BD4690BD00BF7F7F7F00A6
:1056500090B587B000AFF860B9607A60FB6893F8E6
:105660002030012B01D1022373E0FB68012283F873
:105670002020FB68022283F821207B68002B0ED1BA
:10568000BB685B7803F01003002B08D0BB685B7825
:1056900023F01003DBB20A33DAB2BB685A707B68BE
:1056A000002B1CD1BB68DB78184600F0EFF80346EE
:1056B0001C04BB685B78184600F0E8F803461B0240
:1056C0001C43BB689B78184600F0E0F8034644EAA8
:1056D0000302BB681B785B0313437B610EE0BB686E
:1056E000DB781A04BB685B781B021343BA689278B4
:1056F0001A43BB681B785B0313437B61FB681B6821
:10570000CA225A62FB681B6853225A62F86800F08A
:105710004BF80346FB74FB7C002B0AD1FB681A682C
:1057200079690E4B0B405360F86800F071F803463E
:10573000FB74FB681B68FF225A62FB7C002B03D1C1
:10574000FB68012283F82120FB68002283F82020D7
:10575000FB7C18461C37BD4690BD00BF3FFFFF00D5
:1057600080B584B000AF78607B681B680D4ADA6052
:10577000FFF770FDF86009E0FFF76CFD0246FB687B
:10578000D31AB3F57A7F01D9032307E07B681B683E
:10579000DB6803F02003002BEED0002318461037FF
:1057A000BD4680BD5FFF030080B584B000AF786068
:1057B0000023FB737B681B68DB6803F04003002B4E
:1057C00020D17B681B684FF0FF32DA60FFF742FDA3
:1057D000B8600DE0FFF73EFD0246BB68D31AB3F593
:1057E0007A7F05D90323FB737B68032283F821208A
:1057F0007B681B68DB6803F04003002B02D1FB7B56
:10580000032BE7D1FB7B18461037BD4680BD000057
:1058100080B584B000AF78600023FB731A4BDB685F
:10582000194A23F08003D360174B9B6803F02003D1
:10583000002B0CD17868FFF793FF0346002B1ED096
:105840007B68032283F821200323FB7317E00E4BB0
:105850009B680D4A23F0200393607868FFF780FF70
:105860000346002B05D07B68032283F82120032305
:10587000FB73054B9B68044A43F020039360FB7B5A
:1058800018461037BD4680BD0040005880B485B032
:1058900000AF0346FB710023FB60FB79FB7205E060
:1058A000FB680133FB60FB7A0A3BFB72FB7A092B36
:1058B000F6D8FB68DBB21B01DAB2FB7A1343DBB22A
:1058C00018461437BD465DF8047B704780B582B03A
:1058D00000AF78607B68002B01D1012342E07B6838
:1058E000D3F88830002B06D17B68002283F884200F
:1058F000786800F03BF87B682422C3F888207B6836
:105900001B681A687B681B6822F001021A607B68BA
:105910009B6A002B02D0786800F09AFD786800F04E
:105920002FF80346012B01D101231BE07B681B6884
:105930005A687B681B6822F490425A607B681B6837
:105940009A687B681B6822F02A029A607B681B6851
:105950001A687B681B6842F001021A60786800F0E0
:1059600019FE034618460837BD4680BD80B483B093
:1059700000AF786000BF0C37BD465DF8047B704710
:105980002DE9B04F92B000AF7861002387F8423024
:105990007B699A687B691B691A437B695B691A4357
:1059A0007B69DB6913437B647B691B681A68BE4BA8
:1059B00013407A691268796C0B4313607B691B682A
:1059C0005B6823F440517B69DA687B691B680A4392
:1059D0005A607B699B697B647B691B68B34A93420D
:1059E00004D07B691B6A7A6C13437B647B691B68F8
:1059F0009A68AF4B13407A691268796C0B439360D5
:105A00007B691B68DB6A23F00F017B695A6A7B693B
:105A10001B680A43DA627B691B68A64A934277D106
:105A2000A54B5B6D03F03803282B6DD801A252F80B
:105A300023F000BFD95A0008095B0008095B000881
:105A4000095B0008095B0008095B0008095B0008A6
:105A5000095B0008E15A0008095B0008095B0008BF
:105A6000095B0008095B0008095B0008095B000886
:105A7000095B0008E95A0008095B0008095B000897
:105A8000095B0008095B0008095B0008095B000866
:105A9000095B0008F15A0008095B0008095B00086F
:105AA000095B0008095B0008095B0008095B000846
:105AB000095B0008F95A0008095B0008095B000847
:105AC000095B0008095B0008095B0008095B000826
:105AD000095B0008015B0008012387F8433022E2DC
